:100000000C94CF000C94EC000C94EC000C94EC00DD
:100010000C94EC000C94EC000C94EC000C94EC00B0
:100020000C94EC000C94EC000C94EC000C94EC00A0
:100030000C94EC000C94EC000C94EC000C94EC0090
:100040000C94CB130C94EC000C94EC000C94EC008E
:100050000C94EC000C94EC000C94EC000C94EC0070
:100060000C94EC000C94EC00036EDB363D9A9999ED
:10007000993DABAAAA2A3E000000803F072C7AA532
:10008000BA6CC590DA3B9365FC8BBC53F810FD3C11
:100090005692834DBD879D3AB63DCBC9BF5BBE73BB
:1000A000DA0FC93F05A84CCDB2D44EB93836A902F3
:1000B0000C50B9918688083CA6AAAA2ABE00000066
:1000C000803F07634236B79BD8A71A39685618AEE7
:1000D000BAAB558C1D3CB7CC5763BD6DEDFD753E7D
:1000E000F6177231BF000000803F08000000BE928A
:1000F0002449123EABAAAA2ABECDCCCC4C3E00006D
:100100000080BEABAAAAAA3E00000000BF0000000B
:10011000803F0000000000084178D3BB4387D11323
:100120003D190E3CC3BD4282AD2B3E68EC8276BECB
:10013000D98FE1A93E4C80EFFFBE01C4FF7F3F0095
:100140000000000000000000240027002A0000003A
:100150000000250028002B000000000023002600DE
:10016000290004040404040404040202020202023A
:10017000030303030303010204081020408001026B
:1001800004081020010204081020000000070002EB
:10019000010000030406000000000000000011241C
:1001A0001FBECFEFD8E0DEBFCDBF13E0A0E0B1E0CF
:1001B000E4E7FBE502C005900D92A638B107D9F738
:1001C00013E0A6E8B3E001C01D92A439B107E1F73E
:1001D0000E94930A0C9429250C940000CF93DF937E
:1001E000EC018C8160E00E94D71481E090E00E94D5
:1001F0006E148C8161E00E94D71481E090E00E942F
:100200006E148C8160E00E94D71484E690E00E9416
:100210006E14DF91CF910895AF92BF92CF92DF928B
:10022000EF92FF920F931F93CF93DF937C018C018A
:100230000B5F1F4FC0E0D0E0A62EBB246801F80181
:1002400081918F0161E00E94B314B5010C2E02C0B0
:10025000759567950A94E2F76170F60180810E94B6
:10026000D7142196C430D10549F7C7010E94EE008A
:10027000DF91CF911F910F91FF90EF90DF90CF9082
:10028000BF90AF900895AF92BF92CF92DF92EF925E
:10029000FF920F931F93CF93DF937C018C010B5F31
:1002A0001F4FC0E0D0E0A62EBB246801F801819169
:1002B0008F0161E00E94B314B5010C2E02C0759548
:1002C00067950A94E2F76170F60180810E94D71465
:1002D0002196C830D10549F7C7010E94EE00DF9191
:1002E000CF911F910F91FF90EF90DF90CF90BF9033
:1002F000AF9008951F93CF93DF93EC01162F8A815F
:10030000642F0E94D7148B818F3F19F060E00E9408
:10031000D7148D8584FF05C0CE01612F0E94430153
:100320000FC0212F30E084E0359527958A95E1F7BD
:10033000CE01622F0E940C01CE01612F0E940C01A0
:10034000DF91CF911F91089541E00E947A010895B5
:1003500040E00E947A010895CF92DF92EF92FF92DF
:100360000F931F93DF93CF9300D0CDB7DEB76C010F
:100370006770660F660F660F606449835A830E9438
:10038000A80149815A81E42EF52E00E010E0D70142
:100390006D917D01D601ED91FC910190F081E02DF0
:1003A000C60109950F5F1F4F0830110581F70F90A7
:1003B0000F90CF91DF911F910F91FF90EF90DF9001
:1003C000CF900895FC0167856E7F678764600E9407
:1003D000A8010895FC016785262F216027876560A5
:1003E0000E94A8010895FC0167856D7F678764609E
:1003F0000E94A8010895FC016785262F22602787A7
:1004000066600E94A80108956CE10E94A801089509
:1004100068E10E94A8010895FC016685262F2160ED
:10042000268769600E94A8010895FC0166856E7F99
:10043000668768600E94A8010895FC016685262FE2
:10044000226026876A600E94A8010895FC016685E3
:100450006D7F668768600E94A8010895FC0166852B
:10046000262F246026876C600E94A8010895FC0155
:1004700066856B7F668768600E94A8010895DF9398
:10048000CF93CDB7DEB728970FB6F894DEBF0FBE77
:10049000CDBFFE013196AAE0B1E028E00D900192B7
:1004A0002150E1F7FC012189241710F4422F41501B
:1004B000E42FF0E0EE0FFF1FEC0FFD1F2181260F50
:1004C0002068622F0E94A80128960FB6F894DEBF1C
:1004D0000FBECDBFCF91DF91089562E00E94A801C9
:1004E00080ED97E00E946E14089561E00E94A801DB
:1004F00080ED97E00E946E140895CF93DF93EC0196
:10050000423018F08D8588608D87498B1A8A2223A6
:1005100029F0413019F48D8584608D8780E593EC56
:100520000E946E148A8160E00E94D7148C8160E082
:100530000E94D7148B818F3F19F060E00E94D7147E
:100540006D8564FD1DC0CE0163E00E940C0184E94D
:1005500091E10E946E14CE0163E00E940C0184E9D7
:1005600091E10E946E14CE0163E00E940C0186E9C5
:1005700090E00E946E14CE0162E00E940C0116C051
:100580006062CE010E94A80184E991E10E946E148C
:100590006D856062CE010E94A80186E990E00E940C
:1005A0006E146D856062CE010E94A8016D85606247
:1005B000CE010E94A80184E08E87CE010E942E0207
:1005C000CE010E94750282E08F87CE0166E00E9414
:1005D000A801DF91CF9108956F927F928F92AF9291
:1005E000CF92EF920F931F93DF93CF93CDB7DEB7E8
:1005F0003C01162F842FF301428323830483E58279
:10060000C682A78280869D8591879E8592879F85D9
:1006100093879889948761E00E94B314F3018381E2
:100620008F3F19F061E00E94B314F301848161E00F
:100630000E94B314112319F0F301158603C080E161
:10064000F3018587C30160E141E020E00E947D0263
:10065000CF91DF911F910F91EF90CF90AF908F903E
:100660007F906F9008958F92AF92CF92EF920F93F9
:10067000CF93DF93A62F742F522F302FAE2C8C2CBC
:10068000E4E0F1E0EC01F983E88300D000D0EDB7BD
:10069000FEB73196CDB7DEB719821182128213826E
:1006A00061E04A2F2FEF072FE52EC32E0E94EC02A8
:1006B0000F900F900F900F90DF91CF910F91EF90CF
:1006C000CF90AF908F9008958F92AF92CF92EF928C
:1006D0000F931F93CF93DF93162FF42FE22F702FDA
:1006E0005E2D3C2D8A2CC4E0D1E0DC01CD93DC935F
:1006F00000D000D0CDB7DEB72196ADB7BEB711960A
:100700001C9219821A821B8261E0412F2F2F0E2F1B
:10071000E72EC52EA32E0E94EC020F900F900F9093
:100720000F90DF91CF911F910F91EF90CF90AF90ED
:100730008F9008958F92AF92CF92EF92FF920F9386
:100740001F93DF93CF93CDB7DEB7F62EF42FE22FB2
:10075000702F5E2D3C2D04E011E0DC010D931C9305
:1007600000D000D00DB71EB70F5F1F4FADB7BEB79B
:100770001196AC92D80111968C9211972C851296F5
:100780002C9312972D8513962C9360E04F2D2FEF0D
:100790000F2FEE2EC72EA52E832E0E94EC020F9057
:1007A0000F900F900F90CF91DF911F910F91FF90BD
:1007B000EF90CF90AF908F9008958F92AF92CF929D
:1007C000DF92EF92FF920F931F93DF93CF93CDB7FA
:1007D000DEB7A62FF42ED22E702F5E2D3C2DBA2D13
:1007E00004E011E0FC011183008300D000D00DB7BC
:1007F0001EB70F5F1F4FEDB7FEB781822D85F80141
:1008000021832E8522832F85238360E04A2F2F2D7D
:100810000D2DE72EC52EA32E8B2E0E94EC020F90DD
:100820000F900F900F90CF91DF911F910F91FF903C
:10083000EF90DF90CF90AF908F900895CF92EF928E
:10084000FF920F931F93F82E192F62E043E024E0EC
:1008500005E056E0E52E37E0C32E0E9433038F2DCE
:10086000912F64E144E020E00E947D021F910F91EE
:10087000FF90EF90CF9008959F92AF92BF92CF924A
:10088000DF92EF92FF920F931F93DF93CF93CDB739
:10089000DEB728970FB6F894DEBF0FBECDBF6C0150
:1008A000CE01019628E0FC0111922A95E9F769E052
:1008B000E62EF12CEC0EFD1E00E010E0BB24BA94F5
:1008C000A82E992EF701B2927F01602F0F5F1F4F64
:1008D000C6014A2D592D0E94AC010830110591F72F
:1008E00028960FB6F894DEBF0FBECDBFCF91DF9133
:1008F0001F910F91FF90EF90DF90CF90BF90AF903E
:100900009F900895EF92FF920F931F93DF93CF93E1
:10091000CDB7DEB728970FB6F894DEBF0FBECDBFB8
:100920007C018E010F5F1F4FC80160E170E048E05D
:1009300050E00E944425C70160E0A8010E94AC017C
:10094000C80168E170E048E050E00E944425C7011A
:1009500061E0A8010E94AC01C8016CE170E048E0D0
:1009600050E00E944425C70162E0A8010E94AC014A
:10097000C8016EE170E048E050E00E944425C701E4
:1009800063E0A8010E94AC01C8016FE170E048E09B
:1009900050E00E944425C70164E0A8010E94AC0118
:1009A00028960FB6F894DEBF0FBECDBFCF91DF9172
:1009B0001F910F91FF90EF9008959F92AF92BF9279
:1009C000CF92DF92EF92FF920F931F93DF93CF931B
:1009D000CDB7DEB728970FB6F894DEBF0FBECDBFF8
:1009E0006C01CE01019628E0FC0111922A95E9F7ED
:1009F00079E0E72EF12CEC0EFD1E00E010E0BB24A8
:100A0000BA94A82E992EF701B2927F010115110513
:100A100009F01182602F0F5F1F4FC6014A2D592D1B
:100A20000E94AC010830110571F728960FB6F894B2
:100A3000DEBF0FBECDBFCF91DF911F910F91FF9011
:100A4000EF90DF90CF90BF90AF909F900895AF92BE
:100A5000BF92CF92DF92EF92FF920F931F93DF939B
:100A6000CF930F92CDB7DEB77C01D62ECA0165E0D9
:100A700070E00E944C2D8B01C82EAA24BB24A01626
:100A8000B1062CF0A016B10621F020E203C024E04C
:100A900001C02C2DC7016A2D4D2D29830E943F02D4
:100AA000C7012981622F0E94A4010894A11CB11CD6
:100AB00044E1A416B10419F70F90CF91DF911F9173
:100AC0000F91FF90EF90DF90CF90BF90AF9008957F
:100AD0006F927F928F929F92AF92BF92CF92DF924E
:100AE000EF92FF920F931F93DF93CF9300D0CDB778
:100AF000DEB74C0169837A830E94820469817A811E
:100B0000A62EB72E00E010E02DC00615170564F0E4
:100B1000C301CC96801791073CF0F70140815181C9
:100B2000C401B6010E9427050894C11CD11C82E0B3
:100B300090E0680E791EECEFFFEFEE0EFF1EF6E080
:100B40006F16710411F768E270E080E090E00E9497
:100B500047140F5F1F4F82E090E0A80EB91E0334C8
:100B6000110539F0750166247724E1E0CE2ED12CF1
:100B7000CCCF0F900F90CF91DF911F910F91FF90ED
:100B8000EF90DF90CF90BF90AF909F908F907F902D
:100B90006F900895CF92DF92EF92FF920F931F9381
:100BA000CF93DF937C01D62EE901440F551F440FEC
:100BB000551FC40FD51F00E010E0C990C7016D2D6F
:100BC000402F0E943F02C7016C2D0E94A4010F5FBD
:100BD0001F4F0430110589F7DF91CF911F910F91BD
:100BE000FF90EF90DF90CF9008956F927F928F9259
:100BF0009F92AF92BF92CF92DF92EF92FF920F93AC
:100C00001F93DF93CF930F92CDB7DEB75C014A01FC
:100C1000C62ED72E662477242CC0601671067CF071
:100C2000C80188968615970554F0F70140815181D7
:100C3000C501672F940179830E94CA0579810E5FEF
:100C40001F4F8CEF9FEFE80EF91E7F5F743129F77D
:100C500068E270E080E090E00E9447140894611C14
:100C6000711CE2E0F0E0CE0EDF1EFDE36F167104B2
:100C700029F076017AE000E010E0CFCF0F90CF911D
:100C8000DF911F910F91FF90EF90DF90CF90BF9079
:100C9000AF909F908F907F906F9008950F931F93C8
:100CA000CF93DF93EC01562F8901642F452F0E94CB
:100CB0003F02CE01B8010E94110BDF91CF911F912D
:100CC0000F910895EF92FF920F931F93CF93DF93AD
:100CD000EC017B010E943C04CE01B70142E951E0E6
:100CE0000E94F50568EE73E080E090E00E944714F2
:100CF00000E010E0CE01602F4AE022E131E00E94E6
:100D00004E060F5F1F4F04301105A1F7CE010E9460
:100D1000DD04CE01B70146E152E00E94F505DF9106
:100D2000CF911F910F91FF90EF9008952F923F92D6
:100D30004F925F926F927F928F929F92AF92BF92EB
:100D4000CF92DF92EF92FF920F931F93DF93CF9397
:100D5000CDB7DEB7CF59D0400FB6F894DEBF0FBE87
:100D6000CDBF982E892E3B01C856DF4F19830883CB
:100D7000C859D040C656DF4FF982E882CA59D040E0
:100D8000CE56DF4FD982C882C259D040CC56DF4FF1
:100D9000B982A882C459D040C057DF4F3983288315
:100DA000C059D0407A010E947502892D982D60E0CB
:100DB00040E0C856DF4F28813981C859D0400E9491
:100DC0004E06892D982D61E040E0C656DF4F288100
:100DD0003981CA59D0400E944E06C30140E050E01C
:100DE00060E070E40E94921AC30140E050E060E0CD
:100DF00072E40E94981A170135942794260C371C28
:100E0000B6E1CB2ED12CCC0EDD1ECE0188599F4FE2
:100E1000C256DF4F99838883CE59D040560155245E
:100E20004424CA56DF4F1882C659D040C956DF4FF6
:100E30001882C759D040D701A170B070C456DF4F97
:100E4000B983A883CC59D040C456DF4FE881F981DB
:100E5000CC59D040309789F0D101ED91FC91119798
:100E6000C057DF4F88819981C059D040E80FF91FE2
:100E700090818181E92FF82F06C0C057DF4FE881AC
:100E8000F981C059D040C101D201CA56DF4F388123
:100E9000C659D040C956DF4F2881C759D0404B2F83
:100EA000542D632F722F09957B018C01CE56DF4F95
:100EB000A881B981C259D0401097F9F420E030E000
:100EC00040E050E00E94A82887FD09C0C801B70192
:100ED00020E030E040E05FE30E94512608C0C801F6
:100EE000B70120E030E040E05FE30E9450260E941E
:100EF0003B27F501718360833BC020E030E040E098
:100F000050E00E94A82887FD09C0C801B70120E071
:100F100030E040E05FE30E94512608C0C801B701FD
:100F200020E030E040E05FE30E9450260E943B2733
:100F30000E946E27CE56DF4FA881B981C259D0409A
:100F40002D913D914D915C910E945126CE56DF4FDF
:100F5000E881F981C259D040248135814681578189
:100F60000E94AC280E943B27D50111967C936E937A
:100F7000E2E0F0E0AE0EBF1EC256DF4F88819981DD
:100F8000CE59D040A816B90611F1A201CA56DF4FBA
:100F90003881C659D040C956DF4F2881C759D04043
:100FA000652F742D832F922F2DEC3CEC4CE45DE3E8
:100FB0000E945126562E472ECA56DF4F8883C659A7
:100FC000D040C956DF4F9883C759D0403DCF892DB7
:100FD000982DBE016A5E7F4F0E94620668EE73E044
:100FE00080E090E00E944714892D982D0E947502A0
:100FF000ADB7BEB718970FB6F894BEBF0FBEADBF62
:10100000EDB7FEB731967E010894E11CF11C1296F3
:10101000FC92EE9211978DE191E093838283C85602
:10102000DF4F88819981C859D04095838483C65603
:10103000DF4FA881B981CA59D040B783A6830E94E7
:101040002D26EDB7FEB738960FB6F894FEBF0FBE4B
:10105000EDBF892D982D60E040E097010E944E067B
:10106000C30140E050E060E470E40E94921AC301C2
:1010700040E050E068EC72E40E94981AAAE74A2E19
:10108000512C4C0C5D1CAA24BB2477246624C45626
:10109000DF4F88819981CC59D040009789F0D101E8
:1010A000ED91FC911197C057DF4F88819981C0590C
:1010B000D040E80FF91F90818181E92FF82F06C0F9
:1010C000C057DF4FE881F981C059D040C101930179
:1010D0004A2D5B2D632F762D09957B018C01CC5613
:1010E000DF4FA881B981C459D0401097F9F420E0AE
:1010F00030E040E050E00E94A82887FD09C0C80108
:10110000B70120E030E040E05FE30E94512608C0D4
:10111000C801B70120E030E040E05FE30E945026C4
:101120000E943B27F601718360833BC020E030E0E2
:1011300040E050E00E94A82887FD09C0C801B7011F
:1011400020E030E040E05FE30E94512608C0C80183
:10115000B70120E030E040E05FE30E9450260E94AB
:101160003B270E946E27CC56DF4FA881B981C45916
:10117000D0402D913D914D915C910E945126CC56CD
:10118000DF4FE881F981C459D040248135814681FF
:1011900057810E94AC280E943B27D60111967C9370
:1011A0006E93E2E0F0E0CE0EDF1EC414D50479F0B9
:1011B00093016A2D7B2D832F962D2DEC3CEC4CE476
:1011C0005DE30E9451265B01782E692E60CF892D48
:1011D000982DBE016A5E7F4F0E94680568EE73E03D
:1011E00080E090E00E944714C156DF4F0FB6F8949C
:1011F000DEBF0FBECDBFCF91DF911F910F91FF904A
:10120000EF90DF90CF90BF90AF909F908F907F90A6
:101210006F905F904F903F902F9008952F923F9244
:101220004F925F926F927F928F929F92AF92BF92F6
:10123000CF92DF92EF92FF920F931F93CF93DF93A2
:101240002C011B013A014901E80120E030E041E0B6
:1012500050E08301E5E2EE2EE1E0FE2E64015E0146
:101260000E9496068114910431F008E0C02ED12C22
:10127000C80CD91C02C0CC24DD24209731F018E022
:10128000A12EB12CAC0EBD1E02C0AA24BB24C201EB
:10129000B10122E030E041E050E08301BDE2EB2EFD
:1012A000B1E0FB2E0E9496068114910431F0A0E17A
:1012B000CA2ED12CC80CD91C02C0CC24DD24209706
:1012C00031F0F0E1AF2EB12CAC0EBD1E02C0AA244D
:1012D000BB24C201B10124E030E041E050E08301D1
:1012E000E6E3EE2EE1E0FE2E0E949606DF91CF911E
:1012F0001F910F91FF90EF90DF90CF90BF90AF9034
:101300009F908F907F906F905F904F903F902F9025
:1013100008952F923F924F925F926F927F928F9299
:101320009F92AF92BF92CF92DF92EF92FF920F9374
:101330001F93DF93CF93CDB7DEB7CA57D0400FB618
:10134000F894DEBF0FBECDBF7C018E01055A1F4F42
:10135000C8010E9414173E010894611C711CC3014E
:101360000E94841A85E193E09A8389839BE0892E09
:10137000912C8C0E9D1EC4010E94841A8FE193E073
:101380009C878B8785E1482E512C4C0E5D1EC20137
:101390000E94841A89E293E09E8B8D8BB9E62B2EF6
:1013A000312C2C0E3D1EC1010E94BD1ECE014F9658
:1013B0000E94841A87E493E098A38F8FCE018996C8
:1013C0000E94841A81E593E09AA789A7CE01C3966B
:1013D0000E94841A8BE593E09CAB8BABCE01CD963B
:1013E0000E94841A85E693E09EAF8DAFA7E4CA2ED3
:1013F000D12CCC0EDD1EC6010E94841A8FE693E02C
:10140000F60191838083F1E5AF2EB12CAC0EBD1EA9
:10141000C5010E94841A89E793E0F50191838083D6
:10142000C701B80140E451E02AE932E002EB12E0E2
:101430000E940E09C701B40145E451E020E030E00C
:1014400000E010E00E940E09C701B3014EE451E034
:1014500020E030E00E940E09C701B20145E551E0ED
:1014600020E030E00E940E09C701B1014BE551E0D8
:101470002AEC32E002EE12E00E940E09C701BE0122
:10148000615E7F4F43E651E020E030E000E010E095
:101490000E940E09C701BE01675D7F4F4CE651E017
:1014A00020E030E00E940E09C701BE016D5C7F4F55
:1014B00043E751E020E030E00E940E09C701BE0181
:1014C000635C7F4F4DE751E020E030E00E940E0961
:1014D000C701B60145E851E020E030E00E940E0966
:1014E000C701B5014DE851E020E030E00E940E094F
:1014F000C658DF4F0FB6F894DEBF0FBECDBFCF91F9
:10150000DF911F910F91FF90EF90DF90CF90BF90F0
:10151000AF909F908F907F906F905F904F903F9093
:101520002F900895FFCFFF920F931F93DF93CF93D8
:10153000CDB7DEB763970FB6F894DEBF0FBECDBF51
:101540008E010F5F1F4FC8010E941E040E94781475
:10155000F02E012F8F2D902F0E948909FBCF0F9322
:101560001F93CF93DF93EC01062F172F07C0E8815D
:10157000F9810190F081E02DCE010995F80161918A
:101580008F016623A1F7DF91CF911F910F910895ED
:10159000EF92FF920F931F93CF93DF937C01EB01A8
:1015A0008A010BC06991D701ED91FC910190F08106
:1015B000E02DC7010995015010400115110591F763
:1015C000DF91CF911F910F91FF90EF900895CF92EF
:1015D000DF92EF92FF920F931F93CF93DF938C01D3
:1015E0007B01C0E0D0E00EC0D801ED91FC91C0803D
:1015F000D180C701BE010E94D00F682FC801F6013B
:1016000009952196F70184819581C817D90760F360
:10161000DF91CF911F910F91FF90EF90DF90CF90CE
:101620000895DC01ED91FC910280F381E02D099594
:1016300008956F927F928F929F92AF92BF92CF92B6
:10164000DF92EF92FF920F931F93DF93CF93CDB76B
:10165000DEB7A0970FB6F894DEBF0FBECDBF5C011A
:10166000CB01BA01611571058105910551F4C501E0
:1016700040E350E060E070E020E030E00E94BA0B10
:1016800046C06E010894C11CD11CEE24FF248701C2
:10169000622E772488249924A40193010E945F2D4F
:1016A000F60161936F010894E11CF11C011D111DED
:1016B000B901CA01611571058105910569F7D80164
:1016C000C7010197A109B1096E010894C11CD11C81
:1016D000C80ED91E17C0F60140814A3010F4405D93
:1016E00001C0495C50E060E070E0C50120E030E0FE
:1016F0000E94BA0B0894E108F10801091109089445
:10170000C108D108E114F1040105110521F7A096E3
:101710000FB6F894DEBF0FBECDBFCF91DF911F9102
:101720000F91FF90EF90DF90CF90BF90AF909F9080
:101730008F907F906F9008952115310549F4DC0159
:10174000ED91FC910190F081E02D642F09950895B1
:101750000E94190B08959A01AB0160E070E00E94AD
:101760009C0B08959A01462F50E060E070E00E94C3
:101770009C0B0895EF92FF920F931F93CF93DF93EB
:10178000EC017A018B012115310541F4E881F981E1
:101790000190F081E02D642F09951BC02A3031059E
:1017A000B1F477FF10C04DE250E060E070E020E05F
:1017B00030E00E94BA0B10950095F094E094E11C83
:1017C000F11C011D111DCE01B801A7012AE00E94E4
:1017D000190BDF91CF911F910F91FF90EF9008951A
:1017E0009A01FB01AF01662757FD6095762F0E9495
:1017F000BA0B08959A01462F50E060E070E00E9415
:10180000BA0B0895CF93DF93EC014DE050E060E018
:1018100070E020E030E00E94BA0BCE014AE050E0D8
:1018200060E070E020E030E00E94BA0BDF91CF91E1
:101830000895CF93DF93EC010E949C0BCE010E9490
:10184000020CDF91CF910895CF93DF93EC019A01C1
:10185000AB0160E070E00E949C0BCE010E94020C84
:10186000DF91CF910895CF93DF93EC019A01462F3A
:1018700050E060E070E00E949C0BCE010E94020CE0
:10188000DF91CF910895CF93DF93EC010E94110B6C
:10189000CE010E94020CDF91CF910895CF93DF9388
:1018A000EC010E94E70ACE010E94020CDF91CF9169
:1018B0000895CF93DF93EC010E94BA0BCE010E94F2
:1018C000020CDF91CF910895CF93DF93EC019A0141
:1018D000CB01AC01662757FD6095762FCE010E94A3
:1018E000BA0BCE010E94020CDF91CF910895CF93E5
:1018F000DF93EC019A01462F50E060E070E00E9417
:10190000BA0BCE010E94020CDF91CF9108959F92F5
:10191000AF92BF92CF92DF92EF92FF920F931F93FD
:10192000CF93DF93EC017A018B01D22ECB01BA0168
:1019300020E030E040E050E00E94CC2687FF0DC060
:10194000CE014DE250E060E070E020E030E00E9427
:10195000BA0B17FB109517F91095CC2450E040E016
:1019600030E02FE311C0DA01F9016B2F742F8F2FB4
:10197000922F20E030E040E251E40E94D326562F1F
:10198000472F382F292FC394CD1468F3C801B7010E
:10199000DA01F9012B2F342F4F2F5E2F0E94512691
:1019A0005B01F82E092F7B2D0E944027C62EE72EC3
:1019B000182F992E0E946C279B01AC016A2D7B2D5C
:1019C0008F2D902F0E9450265B01F82E092FCE01FB
:1019D0004C2D5E2D612F792D2AE030E00E949C0B6A
:1019E000DD2091F1CE016AEF72E00E94110B2CC054
:1019F0006A2D7B2D8F2D902F20E030E040E251E4C6
:101A00000E94AC28C62EB72EA82E992E0E943B27E6
:101A10007B010027F7FC0095102FCE01B801A7012C
:101A20002AE030E00E94BA0BC801B7010E946E277D
:101A30009B01AC016C2D7B2D8A2D992D0E94502687
:101A40005B01F82E092FDA94DD2091F6DF91CF911A
:101A50001F910F91FF90EF90DF90CF90BF90AF90CC
:101A60009F9008950E94870C0895CF93DF93EC0117
:101A70000E94870CCE010E94020CDF91CF91089545
:101A8000CF93DF93EC01CB017B836A8301960E94A5
:101A9000F42399838883009721F41B821A821D8284
:101AA0001C82DF91CF910895EF92FF920F931F93C5
:101AB000CF93DF938C01EB01209711F4C6E0D3E0C4
:101AC0007E01EC2FFF2DDF010D900020E9F7BD0115
:101AD000615070406E1B7F0BF80175836483C801F1
:101AE0000E94400DD8018D919C911197009719F09B
:101AF000BE010E946A25DF91CF911F910F91FF9047
:101B0000EF9008950F931F93CF93DF93EC018B0118
:101B1000FB01648175817D836C830E94400D888107
:101B20009981009729F0F801608171810E946A25EE
:101B3000DF91CF911F910F9108951F93CF93DF9362
:101B4000EC01162F81E090E09D838C83CE0161E053
:101B500070E00E94400DE881F981309721F01083F8
:101B6000E881F9811182DF91CF911F9108951F9330
:101B7000CF93DF93EC01162F81E090E09D838C835F
:101B8000CE0161E070E00E94400DE881F98130975C
:101B900021F01083E881F9811182DF91CF911F91AB
:101BA0000895EF92FF920F931F93DF93CF93CDB7DA
:101BB000DEB7A1970FB6F894DEBF0FBECDBF7C0194
:101BC000CB018E010F5F1F4FB8010E94B325F801B2
:101BD00001900020E9F7BF0161507040601B710B5C
:101BE000F70175836483C7010E94400DF70180816E
:101BF0009181009719F0B8010E946A25A1960FB64D
:101C0000F894DEBF0FBECDBFCF91DF911F910F9132
:101C1000FF90EF900895EF92FF920F931F93DF9341
:101C2000CF93CDB7DEB7A1970FB6F894DEBF0FBE46
:101C3000CDBF7C019A0180E090E08E010F5F1F4FC5
:101C4000A8010E940826F80101900020E9F7BF01D1
:101C500061507040601B710BF70175836483C7018D
:101C60000E94400DF70180819181009719F0B80121
:101C70000E946A25A1960FB6F894DEBF0FBECDBFB5
:101C8000CF91DF911F910F91FF90EF900895EF9208
:101C9000FF920F931F93DF93CF93CDB7DEB7A1973A
:101CA0000FB6F894DEBF0FBECDBF7C01CB01BA01E9
:101CB0008E010F5F1F4FA8010E94D425F8010190EB
:101CC0000020E9F7BF0161507040601B710BF70104
:101CD00075836483C7010E94400DF7018081918163
:101CE000009719F0B8010E946A25A1960FB6F894E2
:101CF000DEBF0FBECDBFCF91DF911F910F91FF903F
:101D0000EF900895EF92FF920F931F93DF93CF937D
:101D1000CDB7DEB7A1970FB6F894DEBF0FBECDBF2B
:101D20007C01CB01BA018E010F5F1F4FA8012AE091
:101D300030E00E940826F80101900020E9F7BF0179
:101D400061507040601B710BF70175836483C7019C
:101D50000E94400DF70180819181009719F0B80130
:101D60000E946A25A1960FB6F894DEBF0FBECDBFC4
:101D7000CF91DF911F910F91FF90EF900895DC01BB
:101D8000ED91FC911197E60FF71F80810895FC01FA
:101D900080819181009749F0248135816217730712
:101DA00020F4680F791FFB0140830895FB016081D7
:101DB0007181FC01808191810E9461250895EF92DB
:101DC000FF920F931F93CF93DF93EC018B01861744
:101DD0009707F9F0FB01248135818C819D81821761
:101DE000930750F4888199810E949024F8016481BE
:101DF0007581CE010E94400D88819981009749F03C
:101E0000F801248135813D832C83608171810E949A
:101E10006A25CE01DF91CF911F910F91FF90EF9036
:101E20000895EF92FF920F931F93CF93DF93EC01EE
:101E30007B01FB01648175818C819D81680F791F15
:101E40007D836C838A819B818617970778F408814C
:101E50001981CE010E94400D88819981009719F067
:101E6000B8010E946A25C8010E9490248881998146
:101E7000009729F0F701608171810E944B25CE0106
:101E8000DF91CF911F910F91FF90EF9008950E94E5
:101E9000110F0895FC01DB012481358114968D9189
:101EA0009C9115972817390759F46D917C91808181
:101EB00091810E9461259C0181E02115310509F085
:101EC00080E090E00895FC01DB01248135811496C7
:101ED0008D919C9115972817390769F46D917C9124
:101EE000808191810E9461259C0181E0211531054D
:101EF00019F480E001C081E090E00895FB01608169
:101F00007181FC01808191810E946125892F881F48
:101F10008827881F90E00895FB0160817181FC0192
:101F2000808191810E94612521E030E01816190618
:101F300014F020E030E0C9010895FB016081718157
:101F4000FC01808191810E94612521E030E018161A
:101F5000190614F420E030E0C9010895FB01608106
:101F60007181FC01808191810E946125892F80957A
:101F7000881F8827881F90E00895FC01848195813F
:101F80006817790720F480819181009729F41092D5
:101F9000860366E873E002C0680F791FCB010895DD
:101FA000DC01ED91FC911197E60FF71F80810895F8
:101FB000FC01DB018481958114962D913C9115974C
:101FC0008217930788F0821B930B208131816D91DA
:101FD0007C91820F931F0E9461259C0181E0211555
:101FE000310519F080E0089580E00895FC01DB01DF
:101FF0002481358114968D919C9115972817390766
:1020000069F46D917C91808191810E9461259C0190
:1020100081E02115310519F080E0089580E00895F0
:10202000EF92FF920F931F93DF93CF9300D000D0D6
:1020300000D0CDB7DEB78C01FB01F42EE22E60811B
:1020400071816115710521F4BF010E94820D19C0D3
:10205000CE0101960E94540D89819A8102C0FC0133
:10206000E0826F2D70E00E9456250097C1F7C801ED
:10207000BE016F5F7F4F0E94820D89819A810E940D
:102080009024C80126960FB6F894DEBF0FBECDBFD0
:10209000CF91DF911F910F91FF90EF900895CF9313
:1020A000DF93FC01CA01248135814217530768F48C
:1020B000C081D1818C0F9D1F70E00E945625009732
:1020C00021F09C012C1B3D0B02C02FEF3FEFC901FB
:1020D000DF91CF91089540E050E00E944F100895A5
:1020E000CF93DF93FC01CA01248135814217530746
:1020F00078F4C081D181FB01608171818C0F9D1FBB
:102100000E949925009721F09C012C1B3D0B02C0D9
:102110002FEF3FEFC901DF91CF91089540E050E0EC
:102120000E9470100895DF92EF92FF920F931F9319
:10213000CF93DF93EC018C819D8148175907E8F418
:102140007A010894E11CF11CE881F981EE0DFF1D74
:10215000D080108208811981C80170E00E948E250C
:102160000E0D1F1DF801D082009739F028813981AA
:10217000AC01421B530B9A0102C02FEF3FEFC90184
:10218000DF91CF911F910F91FF90EF90DF90089515
:10219000FC0144815581415050400E9493100895A4
:1021A000FC01DB01CA0114964D915C9115972481C5
:1021B0003581241B350B2817390778F020813181B0
:1021C0006D917C91820F931F0E9471259C0181E08B
:1021D0002115310519F080E0089580E00895FC0193
:1021E00044815581FB01248135814217530728F032
:1021F00040E050E00E94D010089580E00895CF9212
:10220000DF92EF92FF920F931F93CF93DF937C01A6
:102210008B01E9012417350748F4342F252FAE012F
:10222000C901C92EE6016E01D22EE601D80114962D
:102230008D919C9115978C179D0708F4EC01D8019E
:10224000ED91FC911197EC0FFD1FD08010826D91E4
:102250007C91640F751FC7010E94540DD801ED9148
:10226000FC911197EC0FFD1FD082C701DF91CF9138
:102270001F910F91FF90EF90DF90CF900895CF9333
:10228000DF93EC01FB01248135810E94FF10CE0118
:10229000DF91CF9108958F929F92AF92BF92CF928C
:1022A000DF92EF92FF920F931F93DF93CF9300D0B3
:1022B00000D000D0CDB7DEB76C017B01DB011496F6
:1022C0008D919C9115970097D1F101974817590767
:1022D000B0F1F601848195814817590780F5ED9199
:1022E000FC91119790808A015E010894A11CB11C99
:1022F00024C0D601ED91FC911197E00FF11F808170
:102300008915C9F4F70124813581200F311FC501DA
:10231000B601A8010E94FF10C501B7010E94F60F87
:10232000882E89819A810E9490241C821B821E82A1
:102330001D82882031F40150104017FFDACF0FEFD3
:102340001FEFC80126960FB6F894DEBF0FBECDBFB3
:10235000CF91DF911F910F91FF90EF90DF90CF9081
:10236000BF90AF909F908F900895FC01448155815C
:10237000FB0124813581421B530B0E944B110895B0
:102380002F923F924F925F926F927F928F929F9285
:10239000AF92BF92CF92DF92EF92FF920F931F9373
:1023A000DF93CF93CDB7DEB768970FB6F894DEBF53
:1023B0000FBECDBF5C012A011901FB0120813181D3
:1023C0002115310519F40E94820D65C08E010F5F41
:1023D0001F4FC801B9010E94540D27E0E22EF12CD5
:1023E000EC0EFD1EC70166E073E00E94540D9DE0F7
:1023F000892E912C8C0E9D1E83E1682E712C6C0E03
:102400007D1E2CC0C401B80140E050E096010E943E
:10241000FF10C701B4010E94110F8D859E850E9497
:102420009024188A1F861A8A198AC701B1010E944E
:10243000110FF201448155814C0D5D1DC301B8019E
:102440000E943F11C801B3010E94DF0E8B899C8955
:102450000E9490241E8A1D8A188E1F8AC801B2010C
:102460000E948E106C01FFEF8F3F9F0759F6C70146
:10247000B8010E94110FC501B7010E94820D8F8122
:1024800098850E9490241A8619861C861B8689814D
:102490009A810E949024C50168960FB6F894DEBF19
:1024A0000FBECDBFCF91DF911F910F91FF90EF90A5
:1024B000DF90CF90BF90AF909F908F907F906F9064
:1024C0005F904F903F902F900895AF92BF92CF9220
:1024D000DF92EF92FF920F931F93CF93DF935C01F4
:1024E000EB016C01688179810E94540D00E010E0DD
:1024F0000EC0F601E080F180E00EF11EF701808150
:1025000090E00E943425F70180830F5F1F4F8C817C
:102510009D810817190768F3C501DF91CF911F91BD
:102520000F91FF90EF90DF90CF90BF90AF90089504
:10253000EF92FF920F931F93DF93CF93CDB7DEB748
:102540002D970FB6F894DEBF0FBECDBFFC018B01F7
:102550008617970771F124813581DB0114968D91DF
:102560009C9115972817390731F5CE010196BF01C7
:102570000E946512E980FA80CE010796B8010E9498
:1025800065120F811885C701B8010E94612541E0DD
:10259000009709F040E0C8014D870E9490241A86F8
:1025A00019861C861B8689819A810E9490244D85FC
:1025B00003C041E001C040E0842F2D960FB6F8948F
:1025C000DEBF0FBECDBFCF91DF911F910F91FF9066
:1025D000EF900895AF92BF92CF92DF92EF92FF9269
:1025E0000F931F93CF93DF935C01EB016C01688124
:1025F00079810E94540D00E010E00EC0F601E080E9
:10260000F180E00EF11EF701808190E00E943C25F0
:10261000F70180830F5F1F4F8C819D810817190779
:1026200068F3C501DF91CF911F910F91FF90EF905B
:10263000DF90CF90BF90AF900895AF92BF92CF92AE
:10264000DF92EF92FF920F931F93DF93CF9300D00F
:1026500000D000D0CDB7DEB75C016B01DB016D911E
:102660007C9111976115710521F4B6010E94820DCC
:102670003CC0CE0101960E94540DF601E480F58025
:1026800000E010E00DC0D601ED91FC91E00FF11FCC
:10269000808190E00E942C25009729F00F5F1F4F4A
:1026A0000E151F0580F3ED80FE800BC0D601ED9165
:1026B000FC91EE0DFF1D808190E00E942C2500977B
:1026C00031F00894E108F1080E151F0578F3970121
:1026D0002F5F3F4FC501BE016F5F7F4FA8010E9472
:1026E000FF1089819A810E949024C50126960FB619
:1026F000F894DEBF0FBECDBFCF91DF911F910F9138
:10270000FF90EF90DF90CF90BF90AF9008950F9320
:102710001F93CF93DF93FC018B0141155105A1F06D
:102720006115710589F084819581EA0121978C17E3
:102730009D0708F4EC0160817181C801AE010E941F
:102740007F25C00FD11F1882DF91CF911F910F916C
:1027500008950F931F93CF93DF93FC018B014115D5
:102760005105A1F06115710589F084819581EA0117
:1027700021978C179D0708F4EC0160817181C801D5
:10278000AE010E947F25C00FD11F1882DF91CF912B
:102790001F910F9108951F920F920FB60F9211245F
:1027A0002F933F938F939F93AF93BF9380918B030E
:1027B00090918C03A0918D03B0918E0330918F0383
:1027C0000196A11DB11D232F2D5F2D3720F02D5710
:1027D0000196A11DB11D20938F0380938B039093CD
:1027E0008C03A0938D03B0938E0380918703909107
:1027F0008803A0918903B0918A030196A11DB11DA0
:102800008093870390938803A0938903B0938A03EE
:10281000BF91AF919F918F913F912F910F900FBEDC
:102820000F901F9018958FB7F89420918B033091DB
:102830008C0340918D0350918E038FBFB901CA0163
:1028400008959FB7F89420918703309188034091B1
:10285000890350918A0386B5A89B06C08F3F21F05B
:102860002F5F3F4F4F4F5F4F9FBF542F432F322F4C
:102870002227280F311D411D511D82E0220F331FD9
:10288000441F551F8A95D1F7B901CA010895EF92E7
:10289000FF920F931F93CF93DF937B018C010E94D4
:1028A0002114EB010FC00E9421146C1B7D0B83E0EF
:1028B000683E780738F00894E108F1080109110929
:1028C000C851DC4FE114F1040105110561F7DF91F6
:1028D000CF911F910F91FF90EF900895019739F0DC
:1028E000880F991F880F991F02970197F1F7089594
:1028F000789484B5826084BD84B5816084BD85B5DB
:10290000826085BD85B5816085BDEEE6F0E08081A1
:1029100081608083E1E8F0E01082808182608083C2
:10292000808181608083E0E8F0E080818160808345
:10293000E1EBF0E0808184608083E0EBF0E0808177
:1029400081608083EAE7F0E0808184608083808119
:1029500082608083808181608083808180688083C1
:102960001092C100089590E0FC01EA58FE4F2491B6
:10297000FC01EE59FE4FE491EE23C1F0F0E0EE0FC2
:10298000FF1FEC5BFE4F85919491DC01662341F4BF
:102990009FB7F8948C91209582238C939FBF0895C4
:1029A0009FB7F8948C91822B8C939FBF089590E0F1
:1029B000FC01E657FE4F2491FC01EA58FE4F44917A
:1029C0008E599E4FFC018491882309F441C0222333
:1029D00031F1233021F4909180009F7705C024309D
:1029E00031F4909180009F7D9093800018C0213039
:1029F00019F494B59F7704C0223021F494B59F7DDB
:102A000094BD0DC0263021F49091B0009F7705C091
:102A1000273029F49091B0009F7D9093B000E82F6B
:102A2000F0E0EE0FFF1FE25BFE4F25913491D901DC
:102A3000662341F49FB7F8948C91409584238C933E
:102A40009FBF08959FB7F8948C91842B8C939FBF60
:102A5000089590E0FC01E657FE4F2491FC01EA58EE
:102A6000FE4F44918E599E4FFC0184918823B1F111
:102A7000222331F1233021F4909180009F7705C00B
:102A8000243031F4909180009F7D9093800018C095
:102A9000213019F494B59F7704C0223021F494B505
:102AA0009F7D94BD0DC0263021F49091B0009F779A
:102AB00005C0273029F49091B0009F7D9093B0001D
:102AC000E82FF0E0EE0FFF1FE85AFE4F25913491FA
:102AD000D9018C91842321E030E011F420E030E032
:102AE000C90108956F927F928F929F92AF92BF9289
:102AF000CF92DF92EF92FF920F931F93CF93DF93CA
:102B0000EC01CB01BA012E813F81488559850E9495
:102B1000D3268B01F82EE92EAA84BB84CC84DD84D5
:102B20009701712F832F922F2A813B814C815D81E8
:102B30000E94AC28F701202F312F4F2F5E2F0E94CB
:102B4000AC283B014C01C601B50120E030E040E873
:102B50005FE30E945126F701202F312F4F2F5E2F68
:102B60000E94AC28A60195010E9450269B01AC0151
:102B7000C401B3010E94AC28DF91CF911F910F9146
:102B8000FF90EF90DF90CF90BF90AF909F908F908D
:102B90007F906F9008956F927F928F929F92AF92E5
:102BA000BF92CF92DF92EF92FF920F931F93CF933A
:102BB000DF93EC01CB01BA012E813F814885598515
:102BC0000E94D32620E030E040E85FE30E945026D8
:102BD000162F072FF82EE92EAA84BB84CC84DD841F
:102BE000A8019701652F742F832F922FD801F70129
:102BF0002B2F3A2F4F2F5E2F0E94AC283B014C0108
:102C0000C601B50120E030E040E85FE30E945126B4
:102C1000D801F7012B2F3A2F4F2F5E2F0E94AC289F
:102C2000A60195010E9451269B01AC01C401B3018C
:102C30000E94AC2820E030E040E85FE30E9451268B
:102C40002A813B814C815D810E94AC28DF91CF912C
:102C50001F910F91FF90EF90DF90CF90BF90AF90BA
:102C60009F908F907F906F9008952F923F924F92F8
:102C70005F926F927F928F929F92AF92BF92CF920C
:102C8000DF92EF92FF920F931F93CF93DF93EC01AC
:102C90007A018B016A857B858C859D8523E333E3EF
:102CA00043EC5FE30E94AC28D62EC72EB82EA92E87
:102CB0006E817F818885998520E030E040E05FE388
:102CC0000E94AC289B01AC01C801B7010E94D32629
:102CD000F62E072F182FE92E20E030E040E85FE3C2
:102CE0000E94CC2687FF39C06A817B818C819D81BF
:102CF00020E030E040E05FE30E94AC281B012C01A3
:102D00006F2D702F812F9E2D2F2D302F412F5E2D57
:102D10000E94AC283B014C01A6019501652F742F40
:102D2000832F922F20E030E040E85FE30E9451269D
:102D30002F2D302F412F5E2D0E94AC28D601F5019A
:102D40002B2F3A2F4F2F5E2F0E9450269B01AC0154
:102D5000C401B3010E94AC284EC06F2D702F812F8B
:102D60009E2D20E030E040E050E40E9450268B0190
:102D7000F82EE92E6A817B818C819D8120E030E0F4
:102D800040E05FE30E94AC281B012C019701602FFB
:102D9000712F832F922FF701202F312F4F2F5E2F6E
:102DA0000E94AC283B014C01A6019501652F742FB0
:102DB000832F922F20E030E040E85FE30E9451260D
:102DC000F701202F312F4F2F5E2F0E94AC28D60104
:102DD000F5012B2F3A2F4F2F5E2F0E9451269B017A
:102DE000AC01C401B3010E94AC2820E030E040E017
:102DF00050E40E9451269B01AC01C201B1010E9426
:102E0000AC28DF91CF911F910F91FF90EF90DF9051
:102E1000CF90BF90AF909F908F907F906F905F907A
:102E20004F903F902F900895CF93DF93EC010E9435
:102E3000841A8BE093E09983888380E69DECA9ED6A
:102E4000BFE38A879B87AC87BD87DF91CF910895C9
:102E5000FC0142875387648775870895CF92DF927C
:102E6000EF92FF920F931F93CF93DF93EC019A01A0
:102E7000AB01CA80DB80EC80FD80088119816E8106
:102E80007F81888599850E945026AB01BC01D801BD
:102E90001296ED91FC911397CE0109959B01AC011F
:102EA000C701B6010E945026DF91CF911F910F916B
:102EB000FF90EF90DF90CF900895EF92FF920F93E5
:102EC0001F93CF93DF93EC01CB01BA012E813F8199
:102ED000488559850E94D3267B018C017F2D912F37
:102EE0002CE83EE24AEB5EE30E94CC2687FF11C04D
:102EF0006E2D7F2D802F912F20E030E042EF50E4A7
:102F00000E94AC282E2D3F2D402F512F0E94AC281F
:102F100082C06E2D7F2D802F912F2CE83EE24AE358
:102F20005FE30E94CC2687FF23C06E2D7F2D802F6C
:102F3000912F29EE32EA4BE05FE30E9450268B018D
:102F4000F82EE92E9701712F832F922F20E030E089
:102F500042EF50E40E94AC28F701202F312F4F2F71
:102F60005E2F0E94AC2820E030E040E45FE351C0D7
:102F70006E2D7F2D802F912F2FE23AEB48E65FE3F5
:102F80000E94CC2687FF23C06E2D7F2D802F912F8E
:102F90002DE534E741E55FE30E9450268B01F82ED2
:102FA000E92E9701712F832F922F20E030E042EF1E
:102FB00050E40E94AC28F701202F312F4F2F5E2FB5
:102FC0000E94AC2820E030E040E75FE322C06E2D95
:102FD0007F2D802F912F27E13DE544E75FE30E949D
:102FE00050268B01F82EE92E9701712F832F922FF7
:102FF00020E030E042EF50E40E94AC28F701202F9F
:10300000312F4F2F5E2F0E94AC2820E030E04CE79C
:103010005FE30E9451262A813B814C815D810E94A1
:10302000AC28DF91CF911F910F91FF90EF90089501
:103030008F929F92AF92BF92CF92DF92EF92FF92C8
:103040000F931F93CF93DF93EC017A018B018E8056
:103050009F80A884B984C501B40120E030E040E03D
:103060005FE30E94AC289B01AC01C801B7010E943C
:10307000CC26C880D98087FF14C0C801B701A80139
:1030800097010E945126AB01BC01D601ED91FC9144
:10309000CE01099520E030E040E05FE30E94AC28DB
:1030A0002BC0C801B701A80197010E945126A501B4
:1030B00094010E945026AB01BC01D6011296ED91FD
:1030C000FC911397CE01099520E030E040E05FE3EA
:1030D0000E94AC287B018C016A817B818C819D815F
:1030E00020E030E040E05FE30E94AC289B01AC01AF
:1030F000C801B7010E945126DF91CF911F910F9116
:10310000FF90EF90DF90CF90BF90AF909F908F9007
:103110000895AF92BF92CF92DF92EF92FF920F93FA
:103120001F93CF93DF93EC017A018B016E817F8136
:103130008885998520E030E040E05FE30E94AC287C
:103140009B01AC01C801B7010E94D3267B018C0111
:103150007F2D912F20E030E040E85FE30E94CC26F5
:1031600087FF2CC06E2D7F2D802F912F2E2D3F2D70
:10317000402F512F0E94AC289B01AC0160E070E011
:1031800080E89FE30E9450260E9465297B018C0104
:103190006A817B818C819D81905820E030E040E005
:1031A0005FE30E94AC285B016C01C801B70120E01D
:1031B00030E040E85FE30E94502635C06E2D7F2D41
:1031C000802F912F20E030E040E050E40E94502614
:1031D0007B018C01762F272F3F2D402F512FCA01C5
:1031E000B9010E94AC289B01AC0160E070E080E86E
:1031F0009FE30E9450260E9465297B018C016A8111
:103200007B818C819D8120E030E040E05FE30E9483
:10321000AC285B016C01C801B70120E030E040E858
:103220005FE30E9451269B01AC01C601B5010E94DB
:10323000AC28DF91CF911F910F91FF90EF90DF901D
:10324000CF90BF90AF900895EF92FF920F931F938E
:10325000CF93DF93EC01CB01BA012E813F814885EA
:1032600059850E94D32620E030E040E85FE30E94C9
:1032700050267B018C01762F272F3F2D402F512F79
:10328000CA01B9010E94AC289B01AC0160E070E06A
:1032900080E89FE30E9450260E9465292A813B8195
:1032A0004C815D810E94AC28DF91CF911F910F91DD
:1032B000FF90EF900895EF92FF920F931F93CF939B
:1032C000DF93EC01CB01BA012E813F8148855985FE
:1032D0000E94D326072F182FE92E762F272F302F65
:1032E000412F5E2DCA01B9010E94AC289B01AC019F
:1032F00060E070E080E89FE30E9450260E9465290C
:10330000EA80FB800C811D8117FB109517F9109541
:1033100020E030E040E85FE30E9450269B01AC01D2
:10332000C801B7010E94AC28DF91CF911F910F9186
:10333000FF90EF900895EF92FF920F931F93CF931A
:10334000DF93EC01CB01BA012E813F81488559857D
:103350000E94D326F62E072F182FE92E2A813B81B3
:103360004C815D810E94AC282F2D302F412F5E2D86
:103370000E94AC282F2D302F412F5E2D0E94AC28AB
:10338000DF91CF911F910F91FF90EF900895EF92F1
:10339000FF920F931F93CF93DF93EC01CB01BA0100
:1033A0002E813F81488559850E94D32620E030E058
:1033B00040E85FE30E945026F62E072F182FE92ED3
:1033C0002F2D302F412F5E2D0E94AC282F2D302F16
:1033D000412F5E2D0E94AC2820E030E040E85FE302
:1033E0000E9451262A813B814C815D810E94AC283C
:1033F000DF91CF911F910F91FF90EF900895AF92C1
:10340000BF92CF92DF92EF92FF920F931F93CF93D1
:10341000DF93EC017A018B016E817F81888599852C
:1034200020E030E040E05FE30E94AC289B01AC016B
:10343000C801B7010E94D326F62E072F182FE92EB8
:1034400020E030E040E85FE30E94CC2687FF1BC00D
:103450006A817B818C819D8120E030E040E05FE3E8
:103460000E94AC282F2D302F412F5E2D0E94AC28BA
:103470002F2D302F412F5E2D0E94AC282F2D302F65
:10348000412F5E2D34C06F2D702F812F9E2D20E097
:1034900030E040E050E40E945026F62E072F182F0F
:1034A000E92E6A817B818C819D8120E030E040E0C3
:1034B0005FE30E94AC285B016C016F2D702F812FA0
:1034C0009E2D2F2D302F412F5E2D0E94AC282F2DA9
:1034D000302F412F5E2D0E94AC2820E030E040E0EC
:1034E00050E40E9451269B01AC01C601B5010E9427
:1034F000AC28DF91CF911F910F91FF90EF90DF905B
:10350000CF90BF90AF900895FC0183E393E0918347
:10351000808320E030E040E050E022833383448326
:1035200055830895FC01468357836087718708950A
:10353000FC01428353836483758308952F923F92E5
:103540004F925F926F927F928F929F92AF92BF92B3
:10355000CF92DF92EF92FF920F931F93DF93CF935F
:10356000CDB7DEB72A970FB6F894DEBF0FBECDBF3A
:103570009A8789877A018B01CB01BA0120E030E07C
:1035800040E050E00E94CC26882309F469C1A98557
:10359000BA8516968D919D910D90BC91A02D898331
:1035A0009A83AB83BC83BC01CD0120E030E040E0D6
:1035B0005FE30E94AC289B01AC01C801B7010E94E7
:1035C000D326E62ED72EC82EB92E20E030E040E0DC
:1035D00050E40E94CC26882339F4E985FA8562817B
:1035E00073818481958140C1A985BA851A961C9101
:1035F0001A971B960C911B971C96FC901C971D9676
:10360000AC90A801652F742F8F2D9A2D20E030E00B
:1036100040E050E00E94CC26882371F469817A81D1
:103620008B819C8127E636E646EE5EE30E94AC285D
:10363000162F072FF82EA92EE985FA8526843784C0
:1036400040885188C201B10120E030E040E050E004
:103650000E94CC26882389F0A985BA8512966D90A0
:103660007D908D909C901597A40193015F77C20186
:10367000B1010E94CC2687FF10C0E985FA8522801F
:10368000338044805580A801652F702F8F2D9A2D8F
:1036900020E030E040E85EE317C0C401B301A201BE
:1036A00091010E94D3260E94B5263B014C01A8013E
:1036B000652F702F8F2D9A2D2BED3FE049EC50E4B4
:1036C0000E94D326A40193010E94AC28662E972E57
:1036D000882E792E6E2D7D2D8C2D9B2D20E030E0B7
:1036E00040E85FE30E94CC2687FF58C06E2D7D2DF9
:1036F0008C2D9B2D20E030E040E85FE30E945026B7
:10370000E62ED72EC82EB92E20E030E040E251E45C
:103710000E94AC289B01AC0160E070E080E090E486
:103720000E940F296D837E838F8398876E2D7D2D58
:103730008C2D9B2D29813A814B815C810E94AC2884
:10374000262D392D482D572D0E9450262BED3FE078
:1037500049EC50E40E94AC28D8012B2F302F4F2D7C
:103760005A2D0E94D3260E945B297B018C01C20145
:10377000B101BD81AE81DF80C8842B2F3A2F4D2D42
:103780005C2D0E94AC28A80197010E94AC2820E083
:1037900030E040E05FEB0E94AC2866C06E2D7D2DCE
:1037A0008C2D9B2D20E030E040E85FE30E94502606
:1037B000E62ED72EC82EB92E20E030E040E251ECA4
:1037C0000E94AC289B01AC0160E070E080E090E4D6
:1037D0000E940F296D837E838F8398876E2D7D2DA8
:1037E0008C2D9B2D29813A814B815C810E94AC28D4
:1037F000262D392D482D572D0E9450262BED3FE0C8
:1038000049EC50E40E94AC28D8012B2F302F4F2DCB
:103810005A2D0E94D3260E945B297B018C01C20194
:10382000B101BD81AE81DF80C8842B2F3A2F4D2D91
:103830005C2D0E94AC28A80197010E94AC2820E0D2
:1038400030E040E05FE30E94AC28A985BA8512967B
:103850002D913D914D915C9115970E94512604C088
:1038600060E070E080E090E02A960FB6F894DEBF4A
:103870000FBECDBFCF91DF911F910F91FF90EF90C1
:10388000DF90CF90BF90AF909F908F907F906F9080
:103890005F904F903F902F9008952F923F924F92BC
:1038A0005F926F927F928F929F92AF92BF92CF92D0
:1038B000DF92EF92FF920F931F93DF93CF93CDB7D9
:1038C000DEB72A970FB6F894DEBF0FBECDBF9A873A
:1038D00089877A018B01CB01BA0120E030E040E01A
:1038E00050E00E94CC26882309F4F6C0A985BA8549
:1038F00016968D919D910D90BC91A02D89839A83F0
:10390000AB83BC83C801B70129813A814B815C81BB
:103910000E94D326362E272E8D839E83A101652FEC
:10392000742F20E030E040E85FE30E94CC2688233B
:1039300039F4E985FA856281738184819581D0C0EB
:10394000A985BA851A961C911A971B96EC901B971D
:103950001C96DC901C971D96CC909601612F7E2DB5
:10396000832F922F20E030E040E050E00E94CC26F0
:10397000882371F469817A818B819C812AE939E9F4
:1039800049E95EE30E94AC28162FE72ED82EC92EF7
:10399000E985FA854684578460887188C301B2013D
:1039A00020E030E040E050E00E94CC26882389F0FF
:1039B000A985BA8512968D909D90AD90BC90159773
:1039C000A50194015F77C301B2010E94CC2687FF55
:1039D00010C0E985FA854280538064807580960125
:1039E000612F7E2D832F9C2D20E030E040E85EE3A8
:1039F00017C0C501B401A30192010E94D3260E9401
:103A0000B5264B015C019601612F7E2D832F9C2DE5
:103A10002BED3FE049EC50E40E94D326A501940130
:103A20000E94AC28862EB72E082FF92EA1013D81C9
:103A30002E81652F722D832F922F20E030E040E2FF
:103A400051EC0E94AC289B01AC0160E070E080E08A
:103A500090E40E940F29A62E972E8F839887A101AC
:103A60003D812E81652F722D832F922F29813A81DE
:103A70004B815C810E94AC28282D3B2D402F5F2D6F
:103A80000E9450262BED3FE049EC50E40E94AC2808
:103A9000F601212F3E2D4F2F5C2D0E94D3260E9430
:103AA0005B297B018C01C301B201DF80C8842A2D10
:103AB000392D4D2D5C2D0E94AC28A80197010E9444
:103AC000AC28A985BA8512962D913D914D915C91B6
:103AD00015970E94512604C060E070E080E090E0FD
:103AE0002A960FB6F894DEBF0FBECDBFCF91DF91FF
:103AF0001F910F91FF90EF90DF90CF90BF90AF900C
:103B00009F908F907F906F905F904F903F902F90FD
:103B100008952F923F924F925F926F927F928F9271
:103B20009F92AF92BF92CF92DF92EF92FF920F934C
:103B30001F93DF93CF93CDB7DEB728970FB6F894D6
:103B4000DEBF0FBECDBF1C017A018B01CB01BA01D4
:103B500020E030E040E050E00E94CC26882309F4C9
:103B6000EFC0D10116968D919D910D90BC91A02D25
:103B70008D839E83AF83B887C801B7012D813E81B5
:103B80004F8158850E94D32669837A838B839C83D7
:103B900020E030E040E85FE30E94CC26882331F447
:103BA000F1016281738184819581CEC0D1011A9621
:103BB0001C911A971B96EC901B971C96DC901C97F7
:103BC0001D96CC909601612F7E2D832F922F20E0A1
:103BD00030E040E050E00E94CC26882371F46D81F3
:103BE0007E818F8198852AE939E949E95EE30E945F
:103BF000AC28162FE72ED82EC92EF1014684578403
:103C000060887188C301B20120E030E040E050E0FC
:103C10000E94CC26882381F0D10112968D909D9030
:103C2000AD90BC901597A50194015F77C301B201D7
:103C30000E94CC2687FF0FC0F10142805380648030
:103C400075809601612F7E2D832F9C2D20E030E022
:103C500040E85EE317C0C501B401A30192010E94D0
:103C6000D3260E94B5264B015C019601612F7E2D63
:103C7000832F9C2D2BED3FE049EC50E40E94D3268E
:103C8000A50194010E94AC28362E272EF82E092F6C
:103C900059814A813B812C81652F742F832F922F6C
:103CA00020E030E040E85FE30E945026862EB72EE9
:103CB000A82E992E20E030E040E251E40E94AC288A
:103CC0009B01AC0160E070E080E090E40E940F296D
:103CD00069837A838B839C83682D7B2D8A2D992D14
:103CE0002D813E814F8158850E94AC28D1012B2F18
:103CF0003A2F4F2D502F0E9450262BED3FE049ECDC
:103D000050E40E94AC28F601212F3E2D4F2F5C2D50
:103D10000E94D3260E945B297B018C01C301B20162
:103D2000B981AA81DB80CC802B2F3A2F4D2D5C2DC1
:103D30000E94AC28A80197010E94AC28905804C0AA
:103D400060E070E080E090E028960FB6F894DEBF67
:103D50000FBECDBFCF91DF911F910F91FF90EF90DC
:103D6000DF90CF90BF90AF909F908F907F906F909B
:103D70005F904F903F902F900895CF93DF93EC0189
:103D80000E94841A8DE393E09983888380E090E019
:103D9000A0E0B0E08A879B87AC87BD878E879F872E
:103DA000A88BB98BDF91CF910895FC01428753878F
:103DB000648775870895FC0146875787608B718BF0
:103DC0000895AF92BF92CF92DF92EF92FF920F933E
:103DD0001F93CF93DF93EC017A018B01CB01BA01E2
:103DE00020E030E040E050E00E94CC26882309F437
:103DF00094C0AE80BF80C884D984C801B701A60131
:103E000095010E94CC26882329F46A817B818C81CC
:103E10009D8187C0C601B50120E030E040E05FE34E
:103E20000E94AC289B01AC01C801B7010E94D326B7
:103E30008B01F82EE92E9701712F832F922F20E00E
:103E400030E040E85FE30E94CC2687FF2CC097015A
:103E5000602F712F832F922F20E030E040E85FE346
:103E60000E94502620E030E040E251E40E94AC285D
:103E70009B01AC0160E070E080E090E40E940F29BB
:103E80008B01F82EE92E6A817B818C819D8120E057
:103E900030E040E05FE30E94AC28F701202F312F93
:103EA0004F2F5E2F37C09701602F712F832F922FD6
:103EB00020E030E040E85FE30E94502620E030E060
:103EC00040E251EC0E94AC289B01AC0160E070E044
:103ED00080E090E40E940F298B01F82EE92E6A8180
:103EE0007B818C819D8120E030E040E05FE30E9497
:103EF000AC285B016C0160E070E080E090E4F701C9
:103F0000202F312F4F2F5E2F0E9450269B01AC0196
:103F1000C601B5010E94AC2804C060E070E080E0FA
:103F200090E0DF91CF911F910F91FF90EF90DF9084
:103F3000CF90BF90AF900895AF92BF92CF92DF9293
:103F4000EF92FF920F931F93CF93DF93EC017A01CF
:103F50008B01AE80BF80C884D984CB01BA01A60191
:103F600095010E94CC26882329F46A817B818C816B
:103F70009D812AC0C801B70120E030E040E251EC49
:103F80000E94AC28A60195010E94D3269B01AC019A
:103F900060E070E080E090E40E940F29562F472FE8
:103FA000382F292F60E070E080E89FE3DA01F90103
:103FB0002B2F3A2F4F2F5E2F0E9450262A813B81B4
:103FC0004C815D810E94AC28DF91CF911F910F91B0
:103FD000FF90EF90DF90CF90BF90AF900895EF9259
:103FE000FF920F931F93CF93DF93EC017A018B0124
:103FF000CB01BA0120E030E040E050E00E94CC2646
:10400000882319F1C801B7012E813F814885598560
:104010000E94D32620E030E040E85FE30E94502673
:1040200020E030E040E251E40E94AC289B01AC016A
:1040300060E070E080E090E40E940F292A813B81DB
:104040004C815D810E94AC2804C060E070E080E09B
:1040500090E0DF91CF911F910F91FF90EF90089525
:10406000CF93DF93EC01CB01BA012A813B814C81D4
:104070005D810E94AC282E813F81488559850E9430
:10408000D326DF91CF910895DC01ED91FC91019051
:10409000F081E02D09950895DC01ED91FC910190EE
:1040A000F081E02D09950895EF92FF920F931F93F1
:1040B000CF93DF93EC01CB01BA012E813F8148857C
:1040C00059850E94D3268B01F82EE92E9701712F76
:1040D000832F922F2A813B814C815D810E94AC28E5
:1040E000F701202F312F4F2F5E2F0E94AC28DF9138
:1040F000CF911F910F91FF90EF900895AF92BF92D3
:10410000CF92DF92EF92FF920F931F93CF93DF93A3
:10411000EC01CB01BA012E813F81488559850E946F
:10412000D3268B01F82EE92E6A817B818C819D81BB
:104130009058F701202F312F4F2F5E2F0E94AC286F
:104140005B016C019701602F712F832F922F20E06C
:1041500030E040E050E40E9450269B01AC01C601D3
:10416000B5010E94AC28DF91CF911F910F91FF9074
:10417000EF90DF90CF90BF90AF900895AF92BF9235
:10418000CF92DF92EF92FF920F931F93CF93DF9323
:10419000EC017A018B016E817F818885998520E011
:1041A00030E040E05FE30E94AC289B01AC01C80115
:1041B000B7010E94D326F62E072F182FE92E20E0F4
:1041C00030E040E85FE30E94CC2687FF15C06A819B
:1041D0007B818C819D8120E030E040E05FE30E94A4
:1041E000AC282F2D302F412F5E2D0E94AC282F2D73
:1041F000302F412F5E2D38C06F2D702F812F9E2DB7
:1042000020E030E040E85FE30E9450268B01F82E6A
:10421000E92E6A817B818C819D81905820E030E07D
:1042200040E05FE30E94AC285B016C019701602FC6
:10423000712F832F922F20E030E040E050E40E9465
:1042400050269B01AC01F701602F712F8F2F9E2FFD
:104250000E94AC2820E030E040E85FE30E94502656
:104260009B01AC01C601B5010E94AC28DF91CF9142
:104270001F910F91FF90EF90DF90CF90BF90AF9084
:104280000895EF92FF920F931F93CF93DF93EC016A
:10429000CB01BA012E813F81488559850E94D326E2
:1042A000F62E072F182FE92E2A813B814C815D8144
:1042B0000E94AC282F2D302F412F5E2D0E94AC285C
:1042C0002F2D302F412F5E2D0E94AC282F2D302F07
:1042D000412F5E2D0E94AC28DF91CF911F910F914D
:1042E000FF90EF900895AF92BF92CF92DF92EF923E
:1042F000FF920F931F93CF93DF93EC01CB01BA0191
:104300002E813F81488559850E94D32620E030E0E8
:1043100040E85FE30E945026F62E072F182FE92E63
:10432000AA80BB80CC80DD80D7FAD094D7F8D09417
:104330002F2D302F412F5E2D0E94AC282F2D302F96
:10434000412F5E2D0E94AC282F2D302F412F5E2D46
:104350000E94AC2820E030E040E85FE30E94502655
:104360009B01AC01C601B5010E94AC28DF91CF9141
:104370001F910F91FF90EF90DF90CF90BF90AF9083
:104380000895AF92BF92CF92DF92EF92FF920F9378
:104390001F93CF93DF93EC017A018B016E817F81B4
:1043A0008885998520E030E040E05FE30E94AC28FA
:1043B0009B01AC01C801B7010E94D326F62E072F3E
:1043C000182FE92E20E030E040E85FE30E94CC2681
:1043D00087FF21C06A817B818C819D8120E030E054
:1043E00040E05FE30E94AC282F2D302F412F5E2D3F
:1043F0000E94AC282F2D302F412F5E2D0E94AC281B
:104400002F2D302F412F5E2D0E94AC282F2D302FC5
:10441000412F5E2D3BC06F2D702F812F9E2D20E0F0
:1044200030E040E050E40E945026F62E072F182F6F
:10443000E92E6A817B818C819D81905820E030E05B
:1044400040E05FE30E94AC285B016C016F2D702F90
:10445000812F9E2D2F2D302F412F5E2D0E94AC28B5
:104460002F2D302F412F5E2D0E94AC282F2D302F65
:10447000412F5E2D0E94AC2820E030E040E050E467
:104480000E9450269B01AC01C601B5010E94AC28D8
:10449000DF91CF911F910F91FF90EF90DF90CF9020
:1044A000BF90AF900895EF92FF920F931F93CF9319
:1044B000DF93EC01CB01BA012E813F8148855985FC
:1044C0000E94D326F62E072F182FE92E2A813B8132
:1044D0004C815D810E94AC282F2D302F412F5E2D05
:1044E0000E94AC282F2D302F412F5E2D0E94AC282A
:1044F0002F2D302F412F5E2D0E94AC282F2D302FD5
:10450000412F5E2D0E94AC28DF91CF911F910F911A
:10451000FF90EF900895EF92FF920F931F93CF9328
:10452000DF93EC01CB01BA012E813F81488559858B
:104530000E94D32620E030E040E85FE30E9450264E
:10454000F62E072F182FE92E2F2D302F412F5E2DFD
:104550000E94AC282F2D302F412F5E2D0E94AC28B9
:104560002F2D302F412F5E2D0E94AC282F2D302F64
:10457000412F5E2D0E94AC2820E030E040E85FE350
:104580000E9451262A813B814C815D810E94AC288A
:10459000DF91CF911F910F91FF90EF900895AF920F
:1045A000BF92CF92DF92EF92FF920F931F93CF9320
:1045B000DF93EC017A018B016E817F81888599857B
:1045C00020E030E040E05FE30E94AC289B01AC01BA
:1045D000C801B7010E94D326F62E072F182FE92E07
:1045E00020E030E040E85FE30E94CC2687FF27C050
:1045F0006A817B818C819D8120E030E040E05FE337
:104600000E94AC282F2D302F412F5E2D0E94AC2808
:104610002F2D302F412F5E2D0E94AC282F2D302FB3
:10462000412F5E2D0E94AC282F2D302F412F5E2D63
:104630000E94AC282F2D302F412F5E2D40C06F2DB2
:10464000702F812F9E2D20E030E040E050E40E944A
:104650005026F62E072F182FE92E6A817B818C8138
:104660009D8120E030E040E05FE30E94AC285B01E8
:104670006C016F2D702F812F9E2D2F2D302F412FEC
:104680005E2D0E94AC282F2D302F412F5E2D0E94D1
:10469000AC282F2D302F412F5E2D0E94AC282F2DBE
:1046A000302F412F5E2D0E94AC2820E030E040E00A
:1046B00050E40E9451269B01AC01C601B5010E9445
:1046C000AC28DF91CF911F910F91FF90EF90DF9079
:1046D000CF90BF90AF900895AF92BF92CF92DF92EC
:1046E000EF92FF920F931F93CF93DF93EC01CB01D7
:1046F000BA012BED3FE049E450E40E94AC282E8142
:104700003F81488559850E94D3260E94D0267B018F
:104710008C016A817B818C819D81905820E030E002
:1047200040E05FE30E94AC285B016C01C801B70167
:1047300020E030E040E85FE30E9450269B01AC019E
:10474000C601B5010E94AC28DF91CF911F910F9156
:10475000FF90EF90DF90CF90BF90AF900895EF92D1
:10476000FF920F931F93FC01CB01BA01E280F3800B
:104770000481158126813781408551850E94D32689
:104780002BED3FE049EC5FE30E94AC280E94D0266D
:104790009B01AC01C801B70190580E94AC28A80148
:1047A00097010E9451261F910F91FF90EF9008955D
:1047B000CF93DF93EC01CB01BA012E813F81488575
:1047C00059850E94D3262BED3FE049EC5FE30E9420
:1047D000AC280E945B292A813B814C815D810E942B
:1047E000AC28DF91CF910895CF93DF93823091056C
:1047F00010F482E090E0E0919203F091930320E0C6
:1048000030E040E050E028C060817181681779078E
:10481000C8F06817790781F48281938141155105A9
:1048200031F0DA0113969C938E9312972DC09093DA
:1048300093038093920328C02115310529F0621754
:10484000730710F0B90102C0EA01DF01AF019B015B
:1048500072816381E72FF62F3097B1F6211531056C
:1048600001F1281B390B2430310580F412968D910B
:104870009C911397209719F09B838A8304C090938F
:10488000930380939203FD01329646C0FD01E20F2F
:10489000F31F819391932250304011963C932E93B5
:1048A0003BC020919003309191032115310541F4D3
:1048B00020918103309182033093910320939003E0
:1048C00020918303309184032115310541F42DB7E4
:1048D0003EB740917F0350918003241B350BE0913C
:1048E0009003F0919103E217F307A0F42E1B3F0B06
:1048F0002817390778F0AC014E5F5F4F2417350752
:1049000048F04E0F5F1F50939103409390038193A3
:10491000919302C0E0E0F0E0CF01DF91CF910895E4
:10492000CF93DF93009709F491C0FC013297138273
:10493000128260919203709193036115710581F465
:1049400020813181280F391F80919003909191032C
:104950008217930799F5F0939103E093900376C043
:10496000DB0180E090E002C0CD01D901AE17BF07A6
:1049700048F412962D913C91139721153105A1F71A
:10498000CD0121C0B383A283EF01499159919E01CA
:10499000240F351FA217B30779F42D913C9111977D
:1049A000240F351F2E5F3F4F3183208312962D91A8
:1049B0003C91139733832283009729F4F093930358
:1049C000E093920343C0DC011396FC93EE9312979D
:1049D0004D915D91A40FB51FEA17FB0769F4208183
:1049E0003181240F351F2E5F3F4FEC01398328831F
:1049F000228133813B832A83E0E0F0E002C0FB01A7
:104A0000BC01DB0112968D919C9113970097B9F729
:104A10009B012E5F3F4F8D919C911197820F931FA9
:104A200040919003509191034817590779F43097BA
:104A300029F4109293031092920302C013821282FF
:104A4000225030403093910320939003DF91CF9117
:104A50000895F8940C94B82D91115CC6803219F029
:104A600089508550D0F708959111089581548A5145
:104A700008F4805E855A08959111089581568A51EF
:104A800008F4805285580895DC0101C06D934150AF
:104A90005040E0F70895FB01DC010D900020E9F79C
:104AA000119701900D920020E1F70895FC0181918A
:104AB000861721F08823D9F7992708953197CF01D8
:104AC0000895FB01DC018D91019080190110D9F34B
:104AD000990B0895FB01DC0101900D920020E1F794
:104AE0000895FB01DC014150504030F08D91019060
:104AF000801919F40020B9F7881B990B0895FB0160
:104B0000DC014150504048F001900D920020C9F75F
:104B100001C01D9241505040E0F70895FC0181E032
:104B200090E00190061609F4CF010020D1F701971B
:104B30000895FB0151915523A9F0BF01DC014D916E
:104B400045174111E1F759F4CD010190002049F0DA
:104B50004D9140154111C9F3FB014111EFCF81E0A7
:104B600090E001970895FB019F01E8944230C4F062
:104B70004532B4F44A3029F497FB1EF490958195A0
:104B80009F4F642F77270E94382D805D8A330CF069
:104B9000895D8193CB010097A1F716F45DE25193F3
:104BA0001082C9010C94A32BFA01CF93FF93EF93CA
:104BB000223044F1253234F5C22FE894CA3049F44A
:104BC00097FB3EF490958095709561957F4F8F4F40
:104BD0009F4F2C2F332744275527FF93EF930E9495
:104BE0005F2DEF91FF91605D6A330CF0695D619319
:104BF000B901CA01605070408040904051F716F4EE
:104C0000CDE2C19310828F919F91CF910C94A32BF1
:104C1000FA01CF93FF93EF932230CCF02532BCF40E
:104C2000C22F2C2F332744275527FF93EF930E9441
:104C30005F2DEF91FF91605D6A330CF0695D6193C8
:104C4000B901CA01605070408040904051F7108215
:104C50008F919F91CF910C94A32BAEE0B0E0E3E352
:104C6000F6E20C948F2D0D891E8986E08C831A83C1
:104C700009838FEF9FE79E838D839E01275E3F4FC1
:104C8000CE0101966F89788DA9010E94A329EF8139
:104C9000F885E00FF11F10822E96E4E00C94AB2D06
:104CA0005058BB27AA270ED008C2D1D130F0D6D198
:104CB00020F031F49F3F11F41EF490C10EF4E09502
:104CC000E7FB86C1E92F1BD280F3BA17620773078F
:104CD0008407950718F071F49EF533C20EF4E09541
:104CE0000B2EBA2FA02D0B01B90190010C01CA01A6
:104CF000A0011124FF27591B99F0593F50F4503E51
:104D000068F11A16F040A22F232F342F4427585F42
:104D1000F3CF469537952795A795F0405395C9F75A
:104D20007EF41F16BA0B620B730B840BBAF0915012
:104D3000A1F0FF0FBB1F661F771F881FC2F70EC0B1
:104D4000BA0F621F731F841F48F487957795679584
:104D5000B795F7959E3F08F0B3CF9395880F08F06D
:104D60009927EE0F9795879508959F939F77EEE388
:104D700089379E0720F4E8E6F0E058D109C0E9D071
:104D80009058A2EA2AED3FE049EC5FE39BDF95D122
:104D90000F9007FC90580895F7D008F481E008952B
:104DA00065D1E3959BC10CD088C158D140F04FD15B
:104DB00030F021F45F3F19F00BC15111C3C10EC196
:104DC0009ED198F39923C9F35523B1F3951B550B45
:104DD000BB27AA2762177307840738F09F5F5F4FCE
:104DE000220F331F441FAA1FA9F333D00E2E3AF00F
:104DF000E0E830D091505040E695001CCAF729D029
:104E0000FE2F27D0660F771F881FBB1F2617370777
:104E10004807AB07B0E809F0BB0B802DBF01FF27A7
:104E200093585F4F2AF09E3F510568F0D1C08AC168
:104E30005F3FECF3983EDCF3869577956795B795E1
:104E4000F7959F5FC9F7880F911D9695879597F9FC
:104E50000895E1E0660F771F881FBB1F6217730775
:104E60008407BA0720F0621B730B840BBA0BEE1F8A
:104E700088F7E095089504D06894B11163C108954E
:104E800046D188F09F5790F0B92F9927B751A0F0DD
:104E9000D1F0660F771F881F991F1AF0BA95C9F7CE
:104EA00012C0B13081F04DD1B1E008954AC1672FF1
:104EB000782F8827B85F39F0B93FCCF3869577957E
:104EC0006795B395D9F73EF4909580957095619567
:104ED0007F4F8F4F9F4F0895E89409C097FB3EF492
:104EE00090958095709561957F4F8F4F9F4F992337
:104EF000A9F0F92F96E9BB279395F69587957795B5
:104F00006795B795F111F8CFFAF4BB0F11F460FF74
:104F10001BC06F5F7F4F8F4F9F4F16C0882311F0CC
:104F200096E911C0772321F09EE8872F762F05C0E0
:104F3000662371F096E8862F70E060E02AF09A957B
:104F4000660F771F881FDAF7880F9695879597F970
:104F50000895DF93CF931F930F938B01EC01ECE740
:104F6000F0E03FD0AAD09801AE018B01EC0160E0E7
:104F700070E080E89FE394DEA8D19801AE010F9124
:104F80001F91CF91DF91F4C0990F0008550FAA0B24
:104F9000E0E8FEEF16161706E807F907C0F012164C
:104FA0001306E407F50798F0621B730B840B950B4F
:104FB00039F40A2661F0232B242B252B21F40895A4
:104FC0000A2609F4A140A6958FEF811D811D089541
:104FD00097F99F6780E870E060E008959FEF80ECAC
:104FE0000895DF93CF931F930F93FF92EF92DF9279
:104FF0007B018C01689405C0DA2EEF01B9D0FE0167
:10500000E894A5912591359145915591AEF3EF0125
:1050100059DEFE019701A801DA9479F7DF90EF904D
:10502000FF900F911F91CF91DF9108959F938F93E0
:105030007F936F93FF93EF939B01AC018DD0EF9122
:10504000FF91CFDF2F913F914F915F9185C0002459
:105050000A941616170618060906089500240A94DD
:1050600012161306140605060895B8CF50D0E8F3BB
:10507000E894E0E0BB279F57F0F02AED3FE049ECD1
:1050800006C0EE0FBB0F661F771F881F28F0B23ACD
:1050900062077307840728F0B25A620B730B840B04
:1050A000E3959A9572F7803830F49A95BB0F661F96
:1050B000771F881FD2F7904813C4092E0394000C61
:1050C00011F4882352F0BB0F40F4BF2B11F460FFA2
:1050D00004C06F5F7F4F8F4F9F4F0895EF93E0FFA6
:1050E00006C0A2EA2AED3FE049EC5FEBEBDDE5DF2D
:1050F0000F90039401FC9058E4EAF0E097CF57FD3D
:105100009058440F551F59F05F3F71F04795880F35
:1051100097FB991F61F09F3F79F0879508951216CC
:1051200013061406551FF2CF4695F1DF08C0161678
:1051300017061806991FF1CF869571056105089429
:105140000895E894BB2766277727CB0197F9089540
:105150001BDF08F48FEF08950BD0AFCF78DF28F076
:105160007DDF18F0952309F033CF38CF1124EACF33
:10517000C6DFA0F3959FD1F3950F50E0551F629FB6
:10518000F001729FBB27F00DB11D639FAA27F00DA0
:10519000B11DAA1F649F6627B00DA11D661F829FC7
:1051A0002227B00DA11D621F739FB00DA11D621FAC
:1051B000839FA00D611D221F749F3327A00D611DC9
:1051C000231F849F600D211D822F762F6A2F1124AB
:1051D0009F5750408AF0E1F088234AF0EE0FFF1FFE
:1051E000BB1F661F771F881F91505040A9F79E3F35
:1051F000510570F0EDCEA6CF5F3FECF3983EDCF3A7
:10520000869577956795B795F795E7959F5FC1F771
:10521000FE2B880F911D9695879597F90895FA01B1
:10522000EE0FFF1F30962105310599F161157105CB
:1052300061F48038BFE39B0749F168949038810599
:1052400061F08038BFEF9B0741F0992342F5FF3FA3
:10525000E1053105210511F1E8940894E795D9019C
:10526000AA2329F4AB2FBE2FF85FD0F310C0FF5F45
:1052700070F4A695E0F7F73950F019F0FF3A38F4DA
:105280009F779F930CD00F9007FC905808953EF0A5
:10529000A5CE60E070E080E89FE308954FE79F7738
:1052A0005F934F933F932F9370D32F913F914F91E3
:1052B0005F9152DFE7C29F93D9DE0F9007FCEE5F4C
:1052C0000DCF11F40EF48ACE09C321DFD0F3992358
:1052D000D9F3CEF39F57550B87FF0ED30024A0E6DA
:1052E00040EA900180585695979528F4805C660FA7
:1052F000771F881F20F026173707480730F4621BF6
:10530000730B840B202931294A2BA69517940794F7
:10531000202531254A2758F7660F771F881F20F070
:1053200026173707480730F4620B730B840B200DE8
:10533000311D411DA09581F7B901842F9158880F27
:10534000969587950895ACE0B0E0E9EAF9E20C940F
:10535000812D6C011B018A01FC0117821682838159
:1053600081FFD1C12E010894411C511CF60193818B
:10537000F10193FD859193FF81911F01882309F429
:10538000BEC1853239F493FD859193FF81911F0150
:10539000853229F490E0B6010E94B32BE7CFEE24CA
:1053A000FF2420E02032B0F48B3269F08C3228F4F4
:1053B000803251F0833271F40BC08D3239F080337A
:1053C00049F421602CC02260246029C0286027C0D5
:1053D000206125C027FD2CC0382F30533A3098F477
:1053E00026FF08C08E2D880FE82EEE0CEE0CE80E7E
:1053F000E30E15C08F2D880FF82EFF0CFF0CF80E52
:10540000F30E20620CC08E3221F426FD78C1206498
:1054100006C08C3611F4206802C0883649F4F101C8
:1054200093FD859193FF81911F01882309F0BACFE5
:10543000982F9554933018F09052933028F40C5FC5
:105440001F4FFFE3F9830DC0833631F0833771F0CE
:10545000833509F060C022C0F801808189830E5F26
:105460001F4F420171E0A72EB12C16C062E0662EDC
:10547000712C600E711EF8018080918026FF03C0A0
:105480006E2D70E002C06FEF7FEFC4012C870E9489
:10549000982B5C0183012C852F7717C052E0652E75
:1054A000712C600E711EF8018080918026FF03C070
:1054B0006E2D70E002C06FEF7FEFC4012C870E9459
:1054C0008D2B5C012C852068830123FD20C008C042
:1054D00080E290E0B6012C870E94B32BFA942C85D1
:1054E0008F2D90E0A816B90698F311C0F40127FD9E
:1054F000859127FF81914F0190E0B6012C870E9492
:10550000B32B2C85F110FA940894A108B108A114CA
:10551000B10461F7F1C0843611F0893649F527FFEF
:1055200008C0F80160817181828193810C5F1F4FF7
:1055300009C0F80160817181882777FD8095982FD7
:105540000E5F1F4F4FE6B42EB22297FF09C0909511
:105550008095709561957F4F8F4F9F4FF0E8BF2AE0
:10556000A2012AE030E00E94DF2B782E741845C09B
:10557000853731F43FEEB32EB2222AE030E025C069
:1055800099EFB92EB2228F36C1F0803720F48835DA
:1055900009F0B5C00DC0803721F0883709F0AFC0E1
:1055A00002C020E1B22AB4FE0BC084E0B82A08C0D1
:1055B000B4FE09C0E6E0BE2A06C028E030E005C01F
:1055C00020E130E002C020E132E0B7FE08C0F8017F
:1055D00060817181828193810C5F1F4F07C0F80148
:1055E0006081718180E090E00E5F1F4FA2010E94F8
:1055F000DF2B782E7418FFE7BF22B6FE0BC02EEF0C
:10560000B2227E1438F4B4FE07C0B2FC05C08FEE9F
:10561000B82202C0A72C01C0AE2C8B2D90E0B4FEA6
:105620000DC0FE01E70DF11D2081203319F4E9EED4
:10563000BE2209C0A394B2FE06C004C08678907052
:10564000009709F0A3948B2C9924B3FC14C0B0FEEE
:105650000FC0AF1428F4E72CEF0CEA18AF2C08C0E9
:10566000E72C06C080E290E0B6010E94B32BA39421
:10567000AF14C0F304C0AF1410F4FA1801C0FF2433
:1056800084FE0FC080E390E0B6010E94B32B82FE3F
:105690001FC081FE03C088E590E010C088E790E05D
:1056A0000DC0C40186789070009791F081FC02C013
:1056B00080E201C08BE2B7FC8DE290E0B6010E946F
:1056C000B32B06C080E390E0B6010E94B32BEA94AE
:1056D0007E14C0F37A94F201E70DF11D808190E011
:1056E000B6010E94B32B7720A9F706C080E290E0B4
:1056F000B6010E94B32BFA94FF20C1F737CEF60112
:105700002681378102C02FEF3FEFC9012C96E2E1DD
:105710000C949D2D992788270895FC0105906150D0
:1057200070400110D8F7809590958E0F9F1F0895B7
:10573000FC016150704001900110D8F78095909560
:105740008E0F9F1F0895DC01FC01672F7191772355
:10575000E1F7329704C07C916D9370836291AE172C
:10576000BF07C8F308950F931F93CF93DF938C0166
:10577000EB018B8181FF1BC082FF0DC02E813F8119
:105780008C819D812817390764F4E881F9810193A0
:10579000F983E88306C0E885F985802F099500978D
:1057A00031F48E819F8101969F838E8302C00FEF1B
:1057B0001FEFC801DF91CF911F910F910895FA015A
:1057C000AA27283051F1203181F1E8946F936E7F40
:1057D0006E5F7F4F8F4F9F4FAF4FB1E03ED0B4E031
:1057E0003CD0670F781F891F9A1FA11D680F791F72
:1057F0008A1F911DA11D6A0F711D811D911DA11D83
:1058000020D009F468943F912AE0269F1124301992
:10581000305D3193DEF6CF010895462F4770405D2D
:105820004193B3E00FD0C9F7F6CF462F4F70405DDC
:105830004A3318F0495D31FD4052419302D0A9F737
:10584000EACFB4E0A6959795879577956795BA9531
:10585000C9F700976105710508959B01AC010A2EF7
:1058600006945795479537952795BA95C9F7620FCE
:10587000731F841F951FA01D089519F40EF0A8CB67
:1058800060CCACCB44DCC8F39638C0F707F80F9275
:10589000E8942BE33AEA48EB5FE76CDC0F920F9257
:1058A0000F924DB75EB70F92B0D0E2ECF0E099DB0B
:1058B0004F915F91EF91FF91E595EE1FFF1F49F02A
:1058C000FE57E0684427EE0F441FFA95E1F7419533
:1058D000550B22D00F9007FE16C008959F3F31F060
:1058E000915020F4879577956795B795880F911D0E
:1058F0009695879597F9089591505040660F771FB8
:10590000881FD2F708959B01AC0160E070E080E849
:105910009FE349CA5DCBE2CFFADBE8F39923D9F3E1
:10592000940F511DBBF39150504094F059F08823CF
:1059300032F0660F771F881F91505040C1F79E3F8D
:10594000510544F7880F911D9695879597F908950D
:105950005F3FACF0983E9CF0BB27869577956795A6
:10596000B79508F4B1609395C1F7BB0F58F711F4E0
:1059700060FFE8CF6F5F7F4F8F4F9F4FE3CFE2CB4A
:105980000EF0ACCF2BCB689423CBC1DBC8F39923AB
:10599000D1F3C6F3DF93CF931F930F93FF92C92FD9
:1059A000DD2788232AF02197660F771F881FDAF7F3
:1059B00020E030E040E85FEB9FE3883920F0803E54
:1059C00030F021968F776DD9EAEEF0E003C069D907
:1059D000E7E1F1E006DB8B01BE01EC01FB2E6F5726
:1059E00071097595771F880B990B78DA28E132E7F2
:1059F00041E35FE3BDDBAF2D9801AE01FF900F9156
:105A00001F91CF91DF915ED958CBFA01DC01AA0F2B
:105A1000BB1F9B01AC01BF5728F422273327442723
:105A200050781FC0B75188F4AB2F002446953795A6
:105A30002795011CA395D2F3002069F0220F331F94
:105A4000441FB395DAF30DD02BC961307105A0E87E
:105A50008A07B94630F49B01AC016627772788276F
:105A60009078309621F020833183428353830895C8
:105A7000AA1BBB1B51E107C0AA1FBB1FA617B70774
:105A800010F0A61BB70B881F991F5A95A9F7809590
:105A90009095BC01CD01089597FB092E07260AD0E9
:105AA00077FD04D0E5DF06D000201AF470956195EB
:105AB0007F4F0895F6F7909581959F4F0895A1E245
:105AC0001A2EAA1BBB1BFD010DC0AA1FBB1FEE1F78
:105AD000FF1FA217B307E407F50720F0A21BB30BC3
